{
  "address": "0xb83508747B5e880d92841138795415C88B2bCaBe",
  "abi": [
    {
      "inputs": [
        {
          "internalType": "string",
          "name": "name",
          "type": "string"
        },
        {
          "internalType": "string",
          "name": "description",
          "type": "string"
        },
        {
          "internalType": "string",
          "name": "imageHash",
          "type": "string"
        },
        {
          "internalType": "uint256",
          "name": "price",
          "type": "uint256"
        },
        {
          "internalType": "string[]",
          "name": "moduleNames",
          "type": "string[]"
        },
        {
          "internalType": "string[]",
          "name": "moduleDescriptions",
          "type": "string[]"
        },
        {
          "internalType": "string[]",
          "name": "materialHashes",
          "type": "string[]"
        },
        {
          "internalType": "string[]",
          "name": "questionHashes",
          "type": "string[]"
        }
      ],
      "name": "createData",
      "outputs": [],
      "stateMutability": "nonpayable",
      "type": "function"
    },
    {
      "inputs": [
        {
          "internalType": "uint256",
          "name": "",
          "type": "uint256"
        }
      ],
      "name": "deployedData",
      "outputs": [
        {
          "internalType": "address",
          "name": "",
          "type": "address"
        }
      ],
      "stateMutability": "view",
      "type": "function"
    },
    {
      "inputs": [],
      "name": "getDeployedData",
      "outputs": [
        {
          "internalType": "address[]",
          "name": "",
          "type": "address[]"
        }
      ],
      "stateMutability": "view",
      "type": "function"
    },
    {
      "inputs": [
        {
          "internalType": "address",
          "name": "DataAddress",
          "type": "address"
        }
      ],
      "name": "joinData",
      "outputs": [],
      "stateMutability": "payable",
      "type": "function"
    },
    {
      "inputs": [],
      "name": "returnEnrolledData",
      "outputs": [
        {
          "internalType": "address[]",
          "name": "",
          "type": "address[]"
        }
      ],
      "stateMutability": "view",
      "type": "function"
    },
    {
      "inputs": [
        {
          "internalType": "address",
          "name": "",
          "type": "address"
        },
        {
          "internalType": "uint256",
          "name": "",
          "type": "uint256"
        }
      ],
      "name": "studentsData",
      "outputs": [
        {
          "internalType": "address",
          "name": "",
          "type": "address"
        }
      ],
      "stateMutability": "view",
      "type": "function"
    }
  ],
  "transactionHash": "0x53990182e7c23a8eff03cf88cac43993ce911801d85a17a754b5649b4c3dc804",
  "args": [],
  "numDeployments": 1,
  "solcInputHash": "d8251fc6a97a4661296bae0344353308",
  "bytecode": "0x608060405234801561001057600080fd5b50615f6d806100206000396000f3fe6080604052600436106200005c5760003560e01c806306e602da14620000615780630ebe746a146200008f57806373a5eb2b14620000bf5780638cc0200d1462000103578063f26b4ac01462000133578063fdd952eb1462000177575b600080fd5b3480156200006e57600080fd5b506200008d600480360381019062000087919062000818565b62000197565b005b3480156200009c57600080fd5b50620000a762000252565b604051620000b6919062000abc565b60405180910390f35b348015620000cc57600080fd5b50620000eb6004803603810190620000e5919062000b11565b620002e2565b604051620000fa919062000b69565b60405180910390f35b3480156200011057600080fd5b506200011b62000331565b6040516200012a919062000abc565b60405180910390f35b3480156200014057600080fd5b506200015f600480360381019062000159919062000b86565b62000404565b6040516200016e919062000b69565b60405180910390f35b6200019560048036038101906200018f919062000bb8565b62000444565b005b6000338989898989898989604051620001b0906200055d565b620001c49998979695949392919062000da6565b604051809103906000f080158015620001e1573d6000803e3d6000fd5b5090506000819080600181540180825580915050600190039060005260206000200160009091909190916101000a81548173ffffffffffffffffffffffffffffffffffffffff021916908373ffffffffffffffffffffffffffffffffffffffff160217905550505050505050505050565b60606000805480602002602001604051908101604052809291908181526020018280548015620002d857602002820191906000526020600020905b8160009054906101000a900473ffffffffffffffffffffffffffffffffffffffff1673ffffffffffffffffffffffffffffffffffffffff16815260200190600101908083116200028d575b5050505050905090565b60016020528160005260406000208181548110620002ff57600080fd5b906000526020600020016000915091509054906101000a900473ffffffffffffffffffffffffffffffffffffffff1681565b60606000600160003373ffffffffffffffffffffffffffffffffffffffff1673ffffffffffffffffffffffffffffffffffffffff168152602001908152602001600020805480602002602001604051908101604052809291908181526020018280548015620003f657602002820191906000526020600020905b8160009054906101000a900473ffffffffffffffffffffffffffffffffffffffff1673ffffffffffffffffffffffffffffffffffffffff1681526020019060010190808311620003ab575b505050505090508091505090565b600081815481106200041557600080fd5b906000526020600020016000915054906101000a900473ffffffffffffffffffffffffffffffffffffffff1681565b6000819050600160003373ffffffffffffffffffffffffffffffffffffffff1673ffffffffffffffffffffffffffffffffffffffff168152602001908152602001600020829080600181540180825580915050600190039060005260206000200160009091909190916101000a81548173ffffffffffffffffffffffffffffffffffffffff021916908373ffffffffffffffffffffffffffffffffffffffff1602179055508073ffffffffffffffffffffffffffffffffffffffff1663ba83d1a034336040518363ffffffff1660e01b815260040162000525919062000b69565b6000604051808303818588803b1580156200053f57600080fd5b505af115801562000554573d6000803e3d6000fd5b50505050505050565b6150c18062000e7783390190565b6000604051905090565b600080fd5b600080fd5b600080fd5b600080fd5b6000601f19601f8301169050919050565b7f4e487b7100000000000000000000000000000000000000000000000000000000600052604160045260246000fd5b620005d48262000589565b810181811067ffffffffffffffff82111715620005f657620005f56200059a565b5b80604052505050565b60006200060b6200056b565b9050620006198282620005c9565b919050565b600067ffffffffffffffff8211156200063c576200063b6200059a565b5b620006478262000589565b9050602081019050919050565b82818337600083830152505050565b60006200067a62000674846200061e565b620005ff565b90508281526020810184848401111562000699576200069862000584565b5b620006a684828562000654565b509392505050565b600082601f830112620006c657620006c56200057f565b5b8135620006d884826020860162000663565b91505092915050565b6000819050919050565b620006f681620006e1565b81146200070257600080fd5b50565b6000813590506200071681620006eb565b92915050565b600067ffffffffffffffff8211156200073a57620007396200059a565b5b602082029050602081019050919050565b600080fd5b60006200076762000761846200071c565b620005ff565b905080838252602082019050602084028301858111156200078d576200078c6200074b565b5b835b81811015620007db57803567ffffffffffffffff811115620007b657620007b56200057f565b5b808601620007c58982620006ae565b855260208501945050506020810190506200078f565b5050509392505050565b600082601f830112620007fd57620007fc6200057f565b5b81356200080f84826020860162000750565b91505092915050565b600080600080600080600080610100898b0312156200083c576200083b62000575565b5b600089013567ffffffffffffffff8111156200085d576200085c6200057a565b5b6200086b8b828c01620006ae565b985050602089013567ffffffffffffffff8111156200088f576200088e6200057a565b5b6200089d8b828c01620006ae565b975050604089013567ffffffffffffffff811115620008c157620008c06200057a565b5b620008cf8b828c01620006ae565b9650506060620008e28b828c0162000705565b955050608089013567ffffffffffffffff8111156200090657620009056200057a565b5b620009148b828c01620007e5565b94505060a089013567ffffffffffffffff8111156200093857620009376200057a565b5b620009468b828c01620007e5565b93505060c089013567ffffffffffffffff8111156200096a57620009696200057a565b5b620009788b828c01620007e5565b92505060e089013567ffffffffffffffff8111156200099c576200099b6200057a565b5b620009aa8b828c01620007e5565b9150509295985092959890939650565b600081519050919050565b600082825260208201905092915050565b6000819050602082019050919050565b600073ffffffffffffffffffffffffffffffffffffffff82169050919050565b600062000a1382620009e6565b9050919050565b62000a258162000a06565b82525050565b600062000a39838362000a1a565b60208301905092915050565b6000602082019050919050565b600062000a5f82620009ba565b62000a6b8185620009c5565b935062000a7883620009d6565b8060005b8381101562000aaf57815162000a93888262000a2b565b975062000aa08362000a45565b92505060018101905062000a7c565b5085935050505092915050565b6000602082019050818103600083015262000ad8818462000a52565b905092915050565b62000aeb8162000a06565b811462000af757600080fd5b50565b60008135905062000b0b8162000ae0565b92915050565b6000806040838503121562000b2b5762000b2a62000575565b5b600062000b3b8582860162000afa565b925050602062000b4e8582860162000705565b9150509250929050565b62000b638162000a06565b82525050565b600060208201905062000b80600083018462000b58565b92915050565b60006020828403121562000b9f5762000b9e62000575565b5b600062000baf8482850162000705565b91505092915050565b60006020828403121562000bd15762000bd062000575565b5b600062000be18482850162000afa565b91505092915050565b600081519050919050565b600082825260208201905092915050565b60005b8381101562000c2657808201518184015260208101905062000c09565b60008484015250505050565b600062000c3f8262000bea565b62000c4b818562000bf5565b935062000c5d81856020860162000c06565b62000c688162000589565b840191505092915050565b62000c7e81620006e1565b82525050565b600081519050919050565b600082825260208201905092915050565b6000819050602082019050919050565b600082825260208201905092915050565b600062000cce8262000bea565b62000cda818562000cb0565b935062000cec81856020860162000c06565b62000cf78162000589565b840191505092915050565b600062000d10838362000cc1565b905092915050565b6000602082019050919050565b600062000d328262000c84565b62000d3e818562000c8f565b93508360208202850162000d528562000ca0565b8060005b8581101562000d94578484038952815162000d72858262000d02565b945062000d7f8362000d18565b925060208a0199505060018101905062000d56565b50829750879550505050505092915050565b60006101208201905062000dbe600083018c62000b58565b818103602083015262000dd2818b62000c32565b9050818103604083015262000de8818a62000c32565b9050818103606083015262000dfe818962000c32565b905062000e0f608083018862000c73565b81810360a083015262000e23818762000d25565b905081810360c083015262000e39818662000d25565b905081810360e083015262000e4f818562000d25565b905081810361010083015262000e66818462000d25565b90509a995050505050505050505056fe60806040523480156200001157600080fd5b50604051620050c1380380620050c1833981810160405281019062000037919062000886565b88600960006101000a81548173ffffffffffffffffffffffffffffffffffffffff021916908373ffffffffffffffffffffffffffffffffffffffff1602179055506001601681905550600960009054906101000a900473ffffffffffffffffffffffffffffffffffffffff166015600080815260200190815260200160002060006101000a81548173ffffffffffffffffffffffffffffffffffffffff021916908373ffffffffffffffffffffffffffffffffffffffff16021790555060016006819055506101f4600e6000600960009054906101000a900473ffffffffffffffffffffffffffffffffffffffff1673ffffffffffffffffffffffffffffffffffffffff1673ffffffffffffffffffffffffffffffffffffffff168152602001908152602001600020819055506101f460078190555033600a60006101000a81548173ffffffffffffffffffffffffffffffffffffffff021916908373ffffffffffffffffffffffffffffffffffffffff1602179055508760009081620001bf919062000c7f565b508660019081620001d1919062000c7f565b508560029081620001e3919062000c7f565b5084600581905550620001ff848484846200020e60201b60201c565b50505050505050505062000f2a565b60005b84518110156200035957600060405180608001604052808784815181106200023e576200023d62000d66565b5b6020026020010151815260200186848151811062000261576200026062000d66565b5b6020026020010151815260200185848151811062000284576200028362000d66565b5b60200260200101518152602001848481518110620002a757620002a662000d66565b5b60200260200101518152509050600c8190806001815401808255809150506001900390600052602060002090600402016000909190919091506000820151816000019081620002f7919062000c7f565b5060208201518160010190816200030f919062000c7f565b50604082015181600201908162000327919062000c7f565b5060608201518160030190816200033f919062000c7f565b505050508080620003509062000dc4565b91505062000211565b50600c60116000600354815260200190815260200160002090805462000381929190620003b2565b50600c60006200039291906200046b565b60036000815480929190620003a79062000dc4565b919050555050505050565b828054828255906000526020600020906004028101928215620004585760005260206000209160040282015b828111156200045757828260008201816000019081620003ff919062000e29565b506001820181600101908162000416919062000e29565b50600282018160020190816200042d919062000e29565b506003820181600301908162000444919062000e29565b50505091600401919060040190620003de565b5b50905062000467919062000491565b5090565b50805460008255600402906000526020600020908101906200048e919062000491565b50565b5b80821115620004ee5760008082016000620004ae9190620004f2565b600182016000620004c09190620004f2565b600282016000620004d29190620004f2565b600382016000620004e49190620004f2565b5060040162000492565b5090565b508054620005009062000a78565b6000825580601f1062000514575062000535565b601f01602090049060005260206000209081019062000534919062000538565b5b50565b5b808211156200055357600081600090555060010162000539565b5090565b6000604051905090565b600080fd5b600080fd5b600073ffffffffffffffffffffffffffffffffffffffff82169050919050565b600062000598826200056b565b9050919050565b620005aa816200058b565b8114620005b657600080fd5b50565b600081519050620005ca816200059f565b92915050565b600080fd5b600080fd5b6000601f19601f8301169050919050565b7f4e487b7100000000000000000000000000000000000000000000000000000000600052604160045260246000fd5b6200062582620005da565b810181811067ffffffffffffffff82111715620006475762000646620005eb565b5b80604052505050565b60006200065c62000557565b90506200066a82826200061a565b919050565b600067ffffffffffffffff8211156200068d576200068c620005eb565b5b6200069882620005da565b9050602081019050919050565b60005b83811015620006c5578082015181840152602081019050620006a8565b60008484015250505050565b6000620006e8620006e2846200066f565b62000650565b905082815260208101848484011115620007075762000706620005d5565b5b62000714848285620006a5565b509392505050565b600082601f830112620007345762000733620005d0565b5b815162000746848260208601620006d1565b91505092915050565b6000819050919050565b62000764816200074f565b81146200077057600080fd5b50565b600081519050620007848162000759565b92915050565b600067ffffffffffffffff821115620007a857620007a7620005eb565b5b602082029050602081019050919050565b600080fd5b6000620007d5620007cf846200078a565b62000650565b90508083825260208201905060208402830185811115620007fb57620007fa620007b9565b5b835b818110156200084957805167ffffffffffffffff811115620008245762000823620005d0565b5b8086016200083389826200071c565b85526020850194505050602081019050620007fd565b5050509392505050565b600082601f8301126200086b576200086a620005d0565b5b81516200087d848260208601620007be565b91505092915050565b60008060008060008060008060006101208a8c031215620008ac57620008ab62000561565b5b6000620008bc8c828d01620005b9565b99505060208a015167ffffffffffffffff811115620008e057620008df62000566565b5b620008ee8c828d016200071c565b98505060408a015167ffffffffffffffff81111562000912576200091162000566565b5b620009208c828d016200071c565b97505060608a015167ffffffffffffffff81111562000944576200094362000566565b5b620009528c828d016200071c565b9650506080620009658c828d0162000773565b95505060a08a015167ffffffffffffffff81111562000989576200098862000566565b5b620009978c828d0162000853565b94505060c08a015167ffffffffffffffff811115620009bb57620009ba62000566565b5b620009c98c828d0162000853565b93505060e08a015167ffffffffffffffff811115620009ed57620009ec62000566565b5b620009fb8c828d0162000853565b9250506101008a015167ffffffffffffffff81111562000a205762000a1f62000566565b5b62000a2e8c828d0162000853565b9150509295985092959850929598565b600081519050919050565b7f4e487b7100000000000000000000000000000000000000000000000000000000600052602260045260246000fd5b6000600282049050600182168062000a9157607f821691505b60208210810362000aa75762000aa662000a49565b5b50919050565b60008190508160005260206000209050919050565b60006020601f8301049050919050565b600082821b905092915050565b60006008830262000b117fffffffffffffffffffffffffffffffffffffffffffffffffffffffffffffffff8262000ad2565b62000b1d868362000ad2565b95508019841693508086168417925050509392505050565b6000819050919050565b600062000b6062000b5a62000b54846200074f565b62000b35565b6200074f565b9050919050565b6000819050919050565b62000b7c8362000b3f565b62000b9462000b8b8262000b67565b84845462000adf565b825550505050565b600090565b62000bab62000b9c565b62000bb881848462000b71565b505050565b5b8181101562000be05762000bd460008262000ba1565b60018101905062000bbe565b5050565b601f82111562000c2f5762000bf98162000aad565b62000c048462000ac2565b8101602085101562000c14578190505b62000c2c62000c238562000ac2565b83018262000bbd565b50505b505050565b600082821c905092915050565b600062000c546000198460080262000c34565b1980831691505092915050565b600062000c6f838362000c41565b9150826002028217905092915050565b62000c8a8262000a3e565b67ffffffffffffffff81111562000ca65762000ca5620005eb565b5b62000cb2825462000a78565b62000cbf82828562000be4565b600060209050601f83116001811462000cf7576000841562000ce2578287015190505b62000cee858262000c61565b86555062000d5e565b601f19841662000d078662000aad565b60005b8281101562000d315784890151825560018201915060208501945060208101905062000d0a565b8683101562000d51578489015162000d4d601f89168262000c41565b8355505b6001600288020188555050505b505050505050565b7f4e487b7100000000000000000000000000000000000000000000000000000000600052603260045260246000fd5b7f4e487b7100000000000000000000000000000000000000000000000000000000600052601160045260246000fd5b600062000dd1826200074f565b91507fffffffffffffffffffffffffffffffffffffffffffffffffffffffffffffffff820362000e065762000e0562000d95565b5b600182019050919050565b60008154905062000e228162000a78565b9050919050565b81810362000e3957505062000f28565b62000e448262000e11565b67ffffffffffffffff81111562000e605762000e5f620005eb565b5b62000e6c825462000a78565b62000e7982828562000be4565b6000601f83116001811462000ead576000841562000e98578287015490505b62000ea4858262000c61565b86555062000f21565b601f19841662000ebd8762000aad565b965062000eca8662000aad565b60005b8281101562000ef45784890154825560018201915060018501945060208101905062000ecd565b8683101562000f14578489015462000f10601f89168262000c41565b8355505b6001600288020188555050505b5050505050505b565b6141878062000f3a6000396000f3fe6080604052600436106101c55760003560e01c8063481c6a75116100f7578063b059a86211610095578063d038cd8211610064578063d038cd82146106e4578063e3d670d71461070d578063e7e770591461074a578063f7a17d9314610775576101cc565b8063b059a8621461062f578063ba83d1a01461065a578063bd0848c314610676578063beab7aba146106b6576101cc565b80636b453c1f116100d15780636b453c1f14610558578063827d358014610581578063a6c3e6b9146105c4578063ab969a22146105ef576101cc565b8063481c6a75146104d95780634cb6f4a51461050457806358d656291461052d576101cc565b80632f0ea0c5116101645780633a77b13a1161013e5780633a77b13a1461041b5780633e5beab914610446578063420714bd14610483578063465f2cdf146104ae576101cc565b80632f0ea0c51461035e5780633216c8db1461039e5780633819ca82146103de576101cc565b80630b786e06116101a05780630b786e06146102765780630fea89b0146102b657806310eb0e0e146102f65780632986c0e514610333576101cc565b806288568e146101ce5780630823c5621461020e5780630b4bddaa1461024b576101cc565b366101cc57005b005b3480156101da57600080fd5b506101f560048036038101906101f091906132a4565b6107a0565b6040516102059493929190613423565b60405180910390f35b34801561021a57600080fd5b50610235600480360381019061023091906134e2565b610c8d565b604051610242919061352a565b60405180910390f35b34801561025757600080fd5b50610260610cad565b60405161026d919061358f565b60405180910390f35b34801561028257600080fd5b5061029d600480360381019061029891906132a4565b610d3b565b6040516102ad949392919061370d565b60405180910390f35b3480156102c257600080fd5b506102dd60048036038101906102d89190613759565b610f9c565b6040516102ed9493929190613799565b60405180910390f35b34801561030257600080fd5b5061031d600480360381019061031891906134e2565b611209565b60405161032a919061352a565b60405180910390f35b34801561033f57600080fd5b50610348611229565b6040516103559190613809565b60405180910390f35b34801561036a57600080fd5b50610385600480360381019061038091906132a4565b61122f565b6040516103959493929190613799565b60405180910390f35b3480156103aa57600080fd5b506103c560048036038101906103c09190613759565b61148f565b6040516103d59493929190613799565b60405180910390f35b3480156103ea57600080fd5b5061040560048036038101906104009190613824565b6116fc565b604051610412919061352a565b60405180910390f35b34801561042757600080fd5b5061043061172b565b60405161043d9190613809565b60405180910390f35b34801561045257600080fd5b5061046d600480360381019061046891906134e2565b611731565b60405161047a9190613809565b60405180910390f35b34801561048f57600080fd5b50610498611749565b6040516104a59190613809565b60405180910390f35b3480156104ba57600080fd5b506104c361174f565b6040516104d09190613864565b60405180910390f35b3480156104e557600080fd5b506104ee611775565b6040516104fb9190613864565b60405180910390f35b34801561051057600080fd5b5061052b600480360381019061052691906132a4565b61179b565b005b34801561053957600080fd5b5061054261185f565b60405161054f919061358f565b60405180910390f35b34801561056457600080fd5b5061057f600480360381019061057a91906134e2565b6118ed565b005b34801561058d57600080fd5b506105a860048036038101906105a391906132a4565b611a29565b6040516105bb979695949392919061387f565b60405180910390f35b3480156105d057600080fd5b506105d9611bb8565b6040516105e69190613864565b60405180910390f35b3480156105fb57600080fd5b50610616600480360381019061061191906132a4565b611bde565b6040516106269493929190613423565b60405180910390f35b34801561063b57600080fd5b506106446120cb565b604051610651919061358f565b60405180910390f35b610674600480360381019061066f91906134e2565b612159565b005b34801561068257600080fd5b5061069d600480360381019061069891906132a4565b61220e565b6040516106ad9493929190613799565b60405180910390f35b3480156106c257600080fd5b506106cb61246e565b6040516106db94939291906138fc565b60405180910390f35b3480156106f057600080fd5b5061070b60048036038101906107069190613b71565b61264f565b005b34801561071957600080fd5b50610734600480360381019061072f91906134e2565b61290a565b6040516107419190613809565b60405180910390f35b34801561075657600080fd5b5061075f612922565b60405161076c9190613809565b60405180910390f35b34801561078157600080fd5b5061078a612928565b6040516107979190613809565b60405180910390f35b606080606080600060116000878152602001908152602001600020805480602002602001604051908101604052809291908181526020016000905b82821015610a55578382906000526020600020906004020160405180608001604052908160008201805461080e90613cfe565b80601f016020809104026020016040519081016040528092919081815260200182805461083a90613cfe565b80156108875780601f1061085c57610100808354040283529160200191610887565b820191906000526020600020905b81548152906001019060200180831161086a57829003601f168201915b505050505081526020016001820180546108a090613cfe565b80601f01602080910402602001604051908101604052809291908181526020018280546108cc90613cfe565b80156109195780601f106108ee57610100808354040283529160200191610919565b820191906000526020600020905b8154815290600101906020018083116108fc57829003601f168201915b5050505050815260200160028201805461093290613cfe565b80601f016020809104026020016040519081016040528092919081815260200182805461095e90613cfe565b80156109ab5780601f10610980576101008083540402835291602001916109ab565b820191906000526020600020905b81548152906001019060200180831161098e57829003601f168201915b505050505081526020016003820180546109c490613cfe565b80601f01602080910402602001604051908101604052809291908181526020018280546109f090613cfe565b8015610a3d5780601f10610a1257610100808354040283529160200191610a3d565b820191906000526020600020905b815481529060010190602001808311610a2057829003601f168201915b505050505081525050815260200190600101906107db565b50505050905060008151905060008167ffffffffffffffff811115610a7d57610a7c613960565b5b604051908082528060200260200182016040528015610ab057816020015b6060815260200190600190039081610a9b5790505b50905060008267ffffffffffffffff811115610acf57610ace613960565b5b604051908082528060200260200182016040528015610b0257816020015b6060815260200190600190039081610aed5790505b50905060008367ffffffffffffffff811115610b2157610b20613960565b5b604051908082528060200260200182016040528015610b5457816020015b6060815260200190600190039081610b3f5790505b50905060008467ffffffffffffffff811115610b7357610b72613960565b5b604051908082528060200260200182016040528015610ba657816020015b6060815260200190600190039081610b915790505b50905060005b85811015610c73576000878281518110610bc957610bc8613d2f565b5b602002602001015190508060000151868381518110610beb57610bea613d2f565b5b60200260200101819052508060200151858381518110610c0e57610c0d613d2f565b5b60200260200101819052508060400151848381518110610c3157610c30613d2f565b5b60200260200101819052508060600151838381518110610c5457610c53613d2f565b5b6020026020010181905250508080610c6b90613d8d565b915050610bac565b508383838399509950995099505050505050509193509193565b600f6020528060005260406000206000915054906101000a900460ff1681565b60008054610cba90613cfe565b80601f0160208091040260200160405190810160405280929190818152602001828054610ce690613cfe565b8015610d335780601f10610d0857610100808354040283529160200191610d33565b820191906000526020600020905b815481529060010190602001808311610d1657829003601f168201915b505050505081565b610d4361308d565b600080610d4e6130b4565b6000600b8681548110610d6457610d63613d2f565b5b90600052602060002090600602016040518060e0016040529081600082018054610d8d90613cfe565b80601f0160208091040260200160405190810160405280929190818152602001828054610db990613cfe565b8015610e065780601f10610ddb57610100808354040283529160200191610e06565b820191906000526020600020905b815481529060010190602001808311610de957829003601f168201915b50505050508152602001600182018054610e1f90613cfe565b80601f0160208091040260200160405190810160405280929190818152602001828054610e4b90613cfe565b8015610e985780601f10610e6d57610100808354040283529160200191610e98565b820191906000526020600020905b815481529060010190602001808311610e7b57829003601f168201915b505050505081526020016002820160009054906101000a900473ffffffffffffffffffffffffffffffffffffffff1673ffffffffffffffffffffffffffffffffffffffff1673ffffffffffffffffffffffffffffffffffffffff1681526020016002820160149054906101000a900460ff161515151581526020016003820154815260200160048201548152602001600582015481525050905060006040518060400160405280836000015181526020018360200151815250905060006040518060600160405280846080015181526020018460a0015181526020018460c00151815250905081836040015184606001518396509650965096505050509193509193565b60116020528160005260406000208181548110610fb857600080fd5b906000526020600020906004020160009150915050806000018054610fdc90613cfe565b80601f016020809104026020016040519081016040528092919081815260200182805461100890613cfe565b80156110555780601f1061102a57610100808354040283529160200191611055565b820191906000526020600020905b81548152906001019060200180831161103857829003601f168201915b50505050509080600101805461106a90613cfe565b80601f016020809104026020016040519081016040528092919081815260200182805461109690613cfe565b80156110e35780601f106110b8576101008083540402835291602001916110e3565b820191906000526020600020905b8154815290600101906020018083116110c657829003601f168201915b5050505050908060020180546110f890613cfe565b80601f016020809104026020016040519081016040528092919081815260200182805461112490613cfe565b80156111715780601f1061114657610100808354040283529160200191611171565b820191906000526020600020905b81548152906001019060200180831161115457829003601f168201915b50505050509080600301805461118690613cfe565b80601f01602080910402602001604051908101604052809291908181526020018280546111b290613cfe565b80156111ff5780601f106111d4576101008083540402835291602001916111ff565b820191906000526020600020905b8154815290600101906020018083116111e257829003601f168201915b5050505050905084565b60146020528060005260406000206000915054906101000a900460ff1681565b60035481565b600d818154811061123f57600080fd5b906000526020600020906004020160009150905080600001805461126290613cfe565b80601f016020809104026020016040519081016040528092919081815260200182805461128e90613cfe565b80156112db5780601f106112b0576101008083540402835291602001916112db565b820191906000526020600020905b8154815290600101906020018083116112be57829003601f168201915b5050505050908060010180546112f090613cfe565b80601f016020809104026020016040519081016040528092919081815260200182805461131c90613cfe565b80156113695780601f1061133e57610100808354040283529160200191611369565b820191906000526020600020905b81548152906001019060200180831161134c57829003601f168201915b50505050509080600201805461137e90613cfe565b80601f01602080910402602001604051908101604052809291908181526020018280546113aa90613cfe565b80156113f75780601f106113cc576101008083540402835291602001916113f7565b820191906000526020600020905b8154815290600101906020018083116113da57829003601f168201915b50505050509080600301805461140c90613cfe565b80601f016020809104026020016040519081016040528092919081815260200182805461143890613cfe565b80156114855780601f1061145a57610100808354040283529160200191611485565b820191906000526020600020905b81548152906001019060200180831161146857829003601f168201915b5050505050905084565b601060205281600052604060002081815481106114ab57600080fd5b9060005260206000209060040201600091509150508060000180546114cf90613cfe565b80601f01602080910402602001604051908101604052809291908181526020018280546114fb90613cfe565b80156115485780601f1061151d57610100808354040283529160200191611548565b820191906000526020600020905b81548152906001019060200180831161152b57829003601f168201915b50505050509080600101805461155d90613cfe565b80601f016020809104026020016040519081016040528092919081815260200182805461158990613cfe565b80156115d65780601f106115ab576101008083540402835291602001916115d6565b820191906000526020600020905b8154815290600101906020018083116115b957829003601f168201915b5050505050908060020180546115eb90613cfe565b80601f016020809104026020016040519081016040528092919081815260200182805461161790613cfe565b80156116645780601f1061163957610100808354040283529160200191611664565b820191906000526020600020905b81548152906001019060200180831161164757829003601f168201915b50505050509080600301805461167990613cfe565b80601f01602080910402602001604051908101604052809291908181526020018280546116a590613cfe565b80156116f25780601f106116c7576101008083540402835291602001916116f2565b820191906000526020600020905b8154815290600101906020018083116116d557829003601f168201915b5050505050905084565b60126020528160005260406000206020528060005260406000206000915091509054906101000a900460ff1681565b60055481565b60136020528060005260406000206000915090505481565b60045481565b600a60009054906101000a900473ffffffffffffffffffffffffffffffffffffffff1681565b600960009054906101000a900473ffffffffffffffffffffffffffffffffffffffff1681565b60016012600083815260200190815260200160002060003373ffffffffffffffffffffffffffffffffffffffff1673ffffffffffffffffffffffffffffffffffffffff16815260200190815260200160002060006101000a81548160ff0219169083151502179055506000600b828154811061181a57611819613d2f565b5b9060005260206000209060060201905080600401600081548092919061183f90613d8d565b919050555060065481600401541061185b5761185a8261292e565b5b5050565b6001805461186c90613cfe565b80601f016020809104026020016040519081016040528092919081815260200182805461189890613cfe565b80156118e55780601f106118ba576101008083540402835291602001916118e5565b820191906000526020600020905b8154815290600101906020018083116118c857829003601f168201915b505050505081565b60011515600f60008373ffffffffffffffffffffffffffffffffffffffff1673ffffffffffffffffffffffffffffffffffffffff16815260200190815260200160002060009054906101000a900460ff1615150361194a57600080fd5b6001600f60008373ffffffffffffffffffffffffffffffffffffffff1673ffffffffffffffffffffffffffffffffffffffff16815260200190815260200160002060006101000a81548160ff0219169083151502179055508060156000601654815260200190815260200160002060006101000a81548173ffffffffffffffffffffffffffffffffffffffff021916908373ffffffffffffffffffffffffffffffffffffffff16021790555060066000815480929190611a0990613d8d565b919050555060166000815480929190611a2190613d8d565b919050555050565b600b8181548110611a3957600080fd5b9060005260206000209060060201600091509050806000018054611a5c90613cfe565b80601f0160208091040260200160405190810160405280929190818152602001828054611a8890613cfe565b8015611ad55780601f10611aaa57610100808354040283529160200191611ad5565b820191906000526020600020905b815481529060010190602001808311611ab857829003601f168201915b505050505090806001018054611aea90613cfe565b80601f0160208091040260200160405190810160405280929190818152602001828054611b1690613cfe565b8015611b635780601f10611b3857610100808354040283529160200191611b63565b820191906000526020600020905b815481529060010190602001808311611b4657829003601f168201915b5050505050908060020160009054906101000a900473ffffffffffffffffffffffffffffffffffffffff16908060020160149054906101000a900460ff16908060030154908060040154908060050154905087565b600860009054906101000a900473ffffffffffffffffffffffffffffffffffffffff1681565b606080606080600060106000878152602001908152602001600020805480602002602001604051908101604052809291908181526020016000905b82821015611e935783829060005260206000209060040201604051806080016040529081600082018054611c4c90613cfe565b80601f0160208091040260200160405190810160405280929190818152602001828054611c7890613cfe565b8015611cc55780601f10611c9a57610100808354040283529160200191611cc5565b820191906000526020600020905b815481529060010190602001808311611ca857829003601f168201915b50505050508152602001600182018054611cde90613cfe565b80601f0160208091040260200160405190810160405280929190818152602001828054611d0a90613cfe565b8015611d575780601f10611d2c57610100808354040283529160200191611d57565b820191906000526020600020905b815481529060010190602001808311611d3a57829003601f168201915b50505050508152602001600282018054611d7090613cfe565b80601f0160208091040260200160405190810160405280929190818152602001828054611d9c90613cfe565b8015611de95780601f10611dbe57610100808354040283529160200191611de9565b820191906000526020600020905b815481529060010190602001808311611dcc57829003601f168201915b50505050508152602001600382018054611e0290613cfe565b80601f0160208091040260200160405190810160405280929190818152602001828054611e2e90613cfe565b8015611e7b5780601f10611e5057610100808354040283529160200191611e7b565b820191906000526020600020905b815481529060010190602001808311611e5e57829003601f168201915b50505050508152505081526020019060010190611c19565b50505050905060008151905060008167ffffffffffffffff811115611ebb57611eba613960565b5b604051908082528060200260200182016040528015611eee57816020015b6060815260200190600190039081611ed95790505b50905060008267ffffffffffffffff811115611f0d57611f0c613960565b5b604051908082528060200260200182016040528015611f4057816020015b6060815260200190600190039081611f2b5790505b50905060008367ffffffffffffffff811115611f5f57611f5e613960565b5b604051908082528060200260200182016040528015611f9257816020015b6060815260200190600190039081611f7d5790505b50905060008467ffffffffffffffff811115611fb157611fb0613960565b5b604051908082528060200260200182016040528015611fe457816020015b6060815260200190600190039081611fcf5790505b50905060005b858110156120b157600087828151811061200757612006613d2f565b5b60200260200101519050806000015186838151811061202957612028613d2f565b5b6020026020010181905250806020015185838151811061204c5761204b613d2f565b5b6020026020010181905250806040015184838151811061206f5761206e613d2f565b5b6020026020010181905250806060015183838151811061209257612091613d2f565b5b60200260200101819052505080806120a990613d8d565b915050611fea565b508383838399509950995099505050505050509193509193565b600280546120d890613cfe565b80601f016020809104026020016040519081016040528092919081815260200182805461210490613cfe565b80156121515780601f1061212657610100808354040283529160200191612151565b820191906000526020600020905b81548152906001019060200180831161213457829003601f168201915b505050505081565b600a60009054906101000a900473ffffffffffffffffffffffffffffffffffffffff1673ffffffffffffffffffffffffffffffffffffffff163373ffffffffffffffffffffffffffffffffffffffff16146121b357600080fd5b6001601460008373ffffffffffffffffffffffffffffffffffffffff1673ffffffffffffffffffffffffffffffffffffffff16815260200190815260200160002060006101000a81548160ff02191690831515021790555050565b600c818154811061221e57600080fd5b906000526020600020906004020160009150905080600001805461224190613cfe565b80601f016020809104026020016040519081016040528092919081815260200182805461226d90613cfe565b80156122ba5780601f1061228f576101008083540402835291602001916122ba565b820191906000526020600020905b81548152906001019060200180831161229d57829003601f168201915b5050505050908060010180546122cf90613cfe565b80601f01602080910402602001604051908101604052809291908181526020018280546122fb90613cfe565b80156123485780601f1061231d57610100808354040283529160200191612348565b820191906000526020600020905b81548152906001019060200180831161232b57829003601f168201915b50505050509080600201805461235d90613cfe565b80601f016020809104026020016040519081016040528092919081815260200182805461238990613cfe565b80156123d65780601f106123ab576101008083540402835291602001916123d6565b820191906000526020600020905b8154815290600101906020018083116123b957829003601f168201915b5050505050908060030180546123eb90613cfe565b80601f016020809104026020016040519081016040528092919081815260200182805461241790613cfe565b80156124645780601f1061243957610100808354040283529160200191612464565b820191906000526020600020905b81548152906001019060200180831161244757829003601f168201915b5050505050905084565b606080606060008060016002600960009054906101000a900473ffffffffffffffffffffffffffffffffffffffff168380546124a990613cfe565b80601f01602080910402602001604051908101604052809291908181526020018280546124d590613cfe565b80156125225780601f106124f757610100808354040283529160200191612522565b820191906000526020600020905b81548152906001019060200180831161250557829003601f168201915b5050505050935082805461253590613cfe565b80601f016020809104026020016040519081016040528092919081815260200182805461256190613cfe565b80156125ae5780601f10612583576101008083540402835291602001916125ae565b820191906000526020600020905b81548152906001019060200180831161259157829003601f168201915b505050505092508180546125c190613cfe565b80601f01602080910402602001604051908101604052809291908181526020018280546125ed90613cfe565b801561263a5780601f1061260f5761010080835404028352916020019161263a565b820191906000526020600020905b81548152906001019060200180831161261d57829003601f168201915b50505050509150935093509350935090919293565b60006040518060e001604052808a81526020018981526020013373ffffffffffffffffffffffffffffffffffffffff16815260200160001515815260200188815260200160008152602001838152509050600b81908060018154018082558091505060019003906000526020600020906006020160009091909190915060008201518160000190816126e19190613f81565b5060208201518160010190816126f79190613f81565b5060408201518160020160006101000a81548173ffffffffffffffffffffffffffffffffffffffff021916908373ffffffffffffffffffffffffffffffffffffffff16021790555060608201518160020160146101000a81548160ff0219169083151502179055506080820151816003015560a0820151816004015560c08201518160050155505060005b86518110156128b257600060405180608001604052808984815181106127ab576127aa613d2f565b5b602002602001015181526020018884815181106127cb576127ca613d2f565b5b602002602001015181526020018784815181106127eb576127ea613d2f565b5b6020026020010151815260200186848151811061280b5761280a613d2f565b5b60200260200101518152509050600c81908060018154018082558091505060019003906000526020600020906004020160009091909190915060008201518160000190816128599190613f81565b50602082015181600101908161286f9190613f81565b5060408201518160020190816128859190613f81565b50606082015181600301908161289b9190613f81565b5050505080806128aa90613d8d565b915050612782565b50600c6010600060045481526020019081526020016000209080546128d89291906130d6565b50600c60006128e79190613182565b600460008154809291906128fa90613d8d565b9190505550505050505050505050565b600e6020528060005260406000206000915090505481565b60065481565b60075481565b6000600b828154811061294457612943613d2f565b5b90600052602060002090600602019050600115158160020160149054906101000a900460ff1615150361297657600080fd5b60018160020160146101000a81548160ff021916908315150217905550600060106000848152602001908152602001600020805480602002602001604051908101604052809291908181526020016000905b82821015612c4257838290600052602060002090600402016040518060800160405290816000820180546129fb90613cfe565b80601f0160208091040260200160405190810160405280929190818152602001828054612a2790613cfe565b8015612a745780601f10612a4957610100808354040283529160200191612a74565b820191906000526020600020905b815481529060010190602001808311612a5757829003601f168201915b50505050508152602001600182018054612a8d90613cfe565b80601f0160208091040260200160405190810160405280929190818152602001828054612ab990613cfe565b8015612b065780601f10612adb57610100808354040283529160200191612b06565b820191906000526020600020905b815481529060010190602001808311612ae957829003601f168201915b50505050508152602001600282018054612b1f90613cfe565b80601f0160208091040260200160405190810160405280929190818152602001828054612b4b90613cfe565b8015612b985780601f10612b6d57610100808354040283529160200191612b98565b820191906000526020600020905b815481529060010190602001808311612b7b57829003601f168201915b50505050508152602001600382018054612bb190613cfe565b80601f0160208091040260200160405190810160405280929190818152602001828054612bdd90613cfe565b8015612c2a5780601f10612bff57610100808354040283529160200191612c2a565b820191906000526020600020905b815481529060010190602001808311612c0d57829003601f168201915b505050505081525050815260200190600101906129c8565b50505050905060008151905060008167ffffffffffffffff811115612c6a57612c69613960565b5b604051908082528060200260200182016040528015612c9d57816020015b6060815260200190600190039081612c885790505b50905060008267ffffffffffffffff811115612cbc57612cbb613960565b5b604051908082528060200260200182016040528015612cef57816020015b6060815260200190600190039081612cda5790505b50905060008367ffffffffffffffff811115612d0e57612d0d613960565b5b604051908082528060200260200182016040528015612d4157816020015b6060815260200190600190039081612d2c5790505b50905060008467ffffffffffffffff811115612d6057612d5f613960565b5b604051908082528060200260200182016040528015612d9357816020015b6060815260200190600190039081612d7e5790505b50905060005b85811015612e60576000878281518110612db657612db5613d2f565b5b602002602001015190508060000151868381518110612dd857612dd7613d2f565b5b60200260200101819052508060200151858381518110612dfb57612dfa613d2f565b5b60200260200101819052508060400151848381518110612e1e57612e1d613d2f565b5b60200260200101819052508060600151838381518110612e4157612e40613d2f565b5b6020026020010181905250508080612e5890613d8d565b915050612d99565b50612e6d84848484612f07565b8660020160009054906101000a900473ffffffffffffffffffffffffffffffffffffffff1660156000601654815260200190815260200160002060006101000a81548173ffffffffffffffffffffffffffffffffffffffff021916908373ffffffffffffffffffffffffffffffffffffffff16021790555060166000815480929190612ef890613d8d565b91905055505050505050505050565b60005b845181101561303a5760006040518060800160405280878481518110612f3357612f32613d2f565b5b60200260200101518152602001868481518110612f5357612f52613d2f565b5b60200260200101518152602001858481518110612f7357612f72613d2f565b5b60200260200101518152602001848481518110612f9357612f92613d2f565b5b60200260200101518152509050600c8190806001815401808255809150506001900390600052602060002090600402016000909190919091506000820151816000019081612fe19190613f81565b506020820151816001019081612ff79190613f81565b50604082015181600201908161300d9190613f81565b5060608201518160030190816130239190613f81565b50505050808061303290613d8d565b915050612f0a565b50600c6011600060035481526020019081526020016000209080546130609291906130d6565b50600c600061306f9190613182565b6003600081548092919061308290613d8d565b919050555050505050565b60405180604001604052806002905b606081526020019060019003908161309c5790505090565b6040518060600160405280600390602082028036833780820191505090505090565b8280548282559060005260206000209060040281019282156131715760005260206000209160040282015b828111156131705782826000820181600001908161311f9190614069565b50600182018160010190816131349190614069565b50600282018160020190816131499190614069565b506003820181600301908161315e9190614069565b50505091600401919060040190613101565b5b50905061317e91906131a6565b5090565b50805460008255600402906000526020600020908101906131a391906131a6565b50565b5b808211156131f957600080820160006131c091906131fd565b6001820160006131d091906131fd565b6002820160006131e091906131fd565b6003820160006131f091906131fd565b506004016131a7565b5090565b50805461320990613cfe565b6000825580601f1061321b575061323a565b601f016020900490600052602060002090810190613239919061323d565b5b50565b5b8082111561325657600081600090555060010161323e565b5090565b6000604051905090565b600080fd5b600080fd5b6000819050919050565b6132818161326e565b811461328c57600080fd5b50565b60008135905061329e81613278565b92915050565b6000602082840312156132ba576132b9613264565b5b60006132c88482850161328f565b91505092915050565b600081519050919050565b600082825260208201905092915050565b6000819050602082019050919050565b600081519050919050565b600082825260208201905092915050565b60005b8381101561333757808201518184015260208101905061331c565b60008484015250505050565b6000601f19601f8301169050919050565b600061335f826132fd565b6133698185613308565b9350613379818560208601613319565b61338281613343565b840191505092915050565b60006133998383613354565b905092915050565b6000602082019050919050565b60006133b9826132d1565b6133c381856132dc565b9350836020820285016133d5856132ed565b8060005b8581101561341157848403895281516133f2858261338d565b94506133fd836133a1565b925060208a019950506001810190506133d9565b50829750879550505050505092915050565b6000608082019050818103600083015261343d81876133ae565b9050818103602083015261345181866133ae565b9050818103604083015261346581856133ae565b9050818103606083015261347981846133ae565b905095945050505050565b600073ffffffffffffffffffffffffffffffffffffffff82169050919050565b60006134af82613484565b9050919050565b6134bf816134a4565b81146134ca57600080fd5b50565b6000813590506134dc816134b6565b92915050565b6000602082840312156134f8576134f7613264565b5b6000613506848285016134cd565b91505092915050565b60008115159050919050565b6135248161350f565b82525050565b600060208201905061353f600083018461351b565b92915050565b600082825260208201905092915050565b6000613561826132fd565b61356b8185613545565b935061357b818560208601613319565b61358481613343565b840191505092915050565b600060208201905081810360008301526135a98184613556565b905092915050565b600060029050919050565b600081905092915050565b6000819050919050565b6000602082019050919050565b60006135e9826135b1565b6135f381856135bc565b935083602082028501613605856135c7565b8060005b858110156136415784840389528151613622858261338d565b945061362d836135d1565b925060208a01995050600181019050613609565b50829750879550505050505092915050565b61365c816134a4565b82525050565b600060039050919050565b600081905092915050565b6000819050919050565b61368b8161326e565b82525050565b600061369d8383613682565b60208301905092915050565b6000602082019050919050565b6136bf81613662565b6136c9818461366d565b92506136d482613678565b8060005b838110156137055781516136ec8782613691565b96506136f7836136a9565b9250506001810190506136d8565b505050505050565b600060c082019050818103600083015261372781876135de565b90506137366020830186613653565b613743604083018561351b565b61375060608301846136b6565b95945050505050565b600080604083850312156137705761376f613264565b5b600061377e8582860161328f565b925050602061378f8582860161328f565b9150509250929050565b600060808201905081810360008301526137b38187613556565b905081810360208301526137c78186613556565b905081810360408301526137db8185613556565b905081810360608301526137ef8184613556565b905095945050505050565b6138038161326e565b82525050565b600060208201905061381e60008301846137fa565b92915050565b6000806040838503121561383b5761383a613264565b5b60006138498582860161328f565b925050602061385a858286016134cd565b9150509250929050565b60006020820190506138796000830184613653565b92915050565b600060e0820190508181036000830152613899818a613556565b905081810360208301526138ad8189613556565b90506138bc6040830188613653565b6138c9606083018761351b565b6138d660808301866137fa565b6138e360a08301856137fa565b6138f060c08301846137fa565b98975050505050505050565b600060808201905081810360008301526139168187613556565b9050818103602083015261392a8186613556565b9050818103604083015261393e8185613556565b905061394d6060830184613653565b95945050505050565b600080fd5b600080fd5b7f4e487b7100000000000000000000000000000000000000000000000000000000600052604160045260246000fd5b61399882613343565b810181811067ffffffffffffffff821117156139b7576139b6613960565b5b80604052505050565b60006139ca61325a565b90506139d6828261398f565b919050565b600067ffffffffffffffff8211156139f6576139f5613960565b5b6139ff82613343565b9050602081019050919050565b82818337600083830152505050565b6000613a2e613a29846139db565b6139c0565b905082815260208101848484011115613a4a57613a4961395b565b5b613a55848285613a0c565b509392505050565b600082601f830112613a7257613a71613956565b5b8135613a82848260208601613a1b565b91505092915050565b600067ffffffffffffffff821115613aa657613aa5613960565b5b602082029050602081019050919050565b600080fd5b6000613acf613aca84613a8b565b6139c0565b90508083825260208201905060208402830185811115613af257613af1613ab7565b5b835b81811015613b3957803567ffffffffffffffff811115613b1757613b16613956565b5b808601613b248982613a5d565b85526020850194505050602081019050613af4565b5050509392505050565b600082601f830112613b5857613b57613956565b5b8135613b68848260208601613abc565b91505092915050565b600080600080600080600080610100898b031215613b9257613b91613264565b5b600089013567ffffffffffffffff811115613bb057613baf613269565b5b613bbc8b828c01613a5d565b985050602089013567ffffffffffffffff811115613bdd57613bdc613269565b5b613be98b828c01613a5d565b9750506040613bfa8b828c0161328f565b965050606089013567ffffffffffffffff811115613c1b57613c1a613269565b5b613c278b828c01613b43565b955050608089013567ffffffffffffffff811115613c4857613c47613269565b5b613c548b828c01613b43565b94505060a089013567ffffffffffffffff811115613c7557613c74613269565b5b613c818b828c01613b43565b93505060c089013567ffffffffffffffff811115613ca257613ca1613269565b5b613cae8b828c01613b43565b92505060e0613cbf8b828c0161328f565b9150509295985092959890939650565b7f4e487b7100000000000000000000000000000000000000000000000000000000600052602260045260246000fd5b60006002820490506001821680613d1657607f821691505b602082108103613d2957613d28613ccf565b5b50919050565b7f4e487b7100000000000000000000000000000000000000000000000000000000600052603260045260246000fd5b7f4e487b7100000000000000000000000000000000000000000000000000000000600052601160045260246000fd5b6000613d988261326e565b91507fffffffffffffffffffffffffffffffffffffffffffffffffffffffffffffffff8203613dca57613dc9613d5e565b5b600182019050919050565b60008190508160005260206000209050919050565b60006020601f8301049050919050565b600082821b905092915050565b600060088302613e377fffffffffffffffffffffffffffffffffffffffffffffffffffffffffffffffff82613dfa565b613e418683613dfa565b95508019841693508086168417925050509392505050565b6000819050919050565b6000613e7e613e79613e748461326e565b613e59565b61326e565b9050919050565b6000819050919050565b613e9883613e63565b613eac613ea482613e85565b848454613e07565b825550505050565b600090565b613ec1613eb4565b613ecc818484613e8f565b505050565b5b81811015613ef057613ee5600082613eb9565b600181019050613ed2565b5050565b601f821115613f3557613f0681613dd5565b613f0f84613dea565b81016020851015613f1e578190505b613f32613f2a85613dea565b830182613ed1565b50505b505050565b600082821c905092915050565b6000613f5860001984600802613f3a565b1980831691505092915050565b6000613f718383613f47565b9150826002028217905092915050565b613f8a826132fd565b67ffffffffffffffff811115613fa357613fa2613960565b5b613fad8254613cfe565b613fb8828285613ef4565b600060209050601f831160018114613feb5760008415613fd9578287015190505b613fe38582613f65565b86555061404b565b601f198416613ff986613dd5565b60005b8281101561402157848901518255600182019150602085019450602081019050613ffc565b8683101561403e578489015161403a601f891682613f47565b8355505b6001600288020188555050505b505050505050565b60008154905061406281613cfe565b9050919050565b81810361407757505061414f565b61408082614053565b67ffffffffffffffff81111561409957614098613960565b5b6140a38254613cfe565b6140ae828285613ef4565b6000601f8311600181146140dd57600084156140cb578287015490505b6140d58582613f65565b865550614148565b601f1984166140eb87613dd5565b96506140f686613dd5565b60005b8281101561411e578489015482556001820191506001850194506020810190506140f9565b8683101561413b5784890154614137601f891682613f47565b8355505b6001600288020188555050505b5050505050505b56fea2646970667358221220b5cd800c68122ed06fbdf44816670e5d1e0d26921476ad753e434d55d8d07ddb64736f6c63430008110033a2646970667358221220a451921ebab1a1f660790ad19ce2dab30317bdf728e231266867a16cd6195d9764736f6c63430008110033",
  "devdoc": {
    "kind": "dev",
    "methods": {},
    "version": 1
  },
  "userdoc": {
    "kind": "user",
    "methods": {},
    "version": 1
  },
  "storageLayout": {
    "storage": [
      {
        "astId": 5,
        "contract": "contracts/TasmiaFactory.sol:TasmiaFactory",
        "label": "deployedData",
        "offset": 0,
        "slot": "0",
        "type": "t_array(t_address)dyn_storage"
      },
      {
        "astId": 10,
        "contract": "contracts/TasmiaFactory.sol:TasmiaFactory",
        "label": "studentsData",
        "offset": 0,
        "slot": "1",
        "type": "t_mapping(t_address,t_array(t_address)dyn_storage)"
      }
    ],
    "types": {
      "t_address": {
        "encoding": "inplace",
        "label": "address",
        "numberOfBytes": "20"
      },
      "t_array(t_address)dyn_storage": {
        "base": "t_address",
        "encoding": "dynamic_array",
        "label": "address[]",
        "numberOfBytes": "32"
      },
      "t_mapping(t_address,t_array(t_address)dyn_storage)": {
        "encoding": "mapping",
        "key": "t_address",
        "label": "mapping(address => address[])",
        "numberOfBytes": "32",
        "value": "t_array(t_address)dyn_storage"
      }
    }
  }
}